{
  "_format": "hh-sol-artifact-1",
  "contractName": "BondingCurve",
  "sourceName": "contracts/BondingCurve.sol",
  "abi": [
    {
      "inputs": [
        {
          "internalType": "address",
          "name": "_stablecoinAddress",
          "type": "address"
        },
        {
          "internalType": "address",
          "name": "_uniswapRouter",
          "type": "address"
        },
        {
          "internalType": "uint256",
          "name": "_basePrice",
          "type": "uint256"
        },
        {
          "internalType": "uint256",
          "name": "_priceIncrement",
          "type": "uint256"
        }
      ],
      "stateMutability": "nonpayable",
      "type": "constructor"
    },
    {
      "anonymous": false,
      "inputs": [
        {
          "indexed": true,
          "internalType": "address",
          "name": "buyer",
          "type": "address"
        },
        {
          "indexed": true,
          "internalType": "address",
          "name": "tokenAddress",
          "type": "address"
        },
        {
          "indexed": false,
          "internalType": "uint256",
          "name": "stablecoinAmount",
          "type": "uint256"
        },
        {
          "indexed": false,
          "internalType": "uint256",
          "name": "tokensReceived",
          "type": "uint256"
        }
      ],
      "name": "TokensBought",
      "type": "event"
    },
    {
      "anonymous": false,
      "inputs": [
        {
          "indexed": false,
          "internalType": "uint256",
          "name": "stablecoinAmount",
          "type": "uint256"
        },
        {
          "indexed": false,
          "internalType": "uint256",
          "name": "tokensReceivable",
          "type": "uint256"
        }
      ],
      "name": "TokensCount",
      "type": "event"
    },
    {
      "anonymous": false,
      "inputs": [
        {
          "indexed": true,
          "internalType": "address",
          "name": "seller",
          "type": "address"
        },
        {
          "indexed": true,
          "internalType": "address",
          "name": "tokenAddress",
          "type": "address"
        },
        {
          "indexed": false,
          "internalType": "uint256",
          "name": "tokensSold",
          "type": "uint256"
        },
        {
          "indexed": false,
          "internalType": "uint256",
          "name": "stablecoinAmountReceived",
          "type": "uint256"
        }
      ],
      "name": "TokensSold",
      "type": "event"
    },
    {
      "inputs": [],
      "name": "basePrice",
      "outputs": [
        {
          "internalType": "uint256",
          "name": "",
          "type": "uint256"
        }
      ],
      "stateMutability": "view",
      "type": "function"
    },
    {
      "inputs": [
        {
          "internalType": "uint256",
          "name": "stablecoinAmount",
          "type": "uint256"
        },
        {
          "internalType": "address",
          "name": "tokenAddress",
          "type": "address"
        }
      ],
      "name": "buyTokens",
      "outputs": [],
      "stateMutability": "nonpayable",
      "type": "function"
    },
    {
      "inputs": [
        {
          "internalType": "uint256",
          "name": "tokenamount",
          "type": "uint256"
        },
        {
          "internalType": "address",
          "name": "tokenAddress",
          "type": "address"
        }
      ],
      "name": "calculateStable",
      "outputs": [
        {
          "internalType": "uint256",
          "name": "",
          "type": "uint256"
        }
      ],
      "stateMutability": "view",
      "type": "function"
    },
    {
      "inputs": [
        {
          "internalType": "uint256",
          "name": "stablecoinAmount",
          "type": "uint256"
        },
        {
          "internalType": "address",
          "name": "tokenAddress",
          "type": "address"
        }
      ],
      "name": "calculateTokens",
      "outputs": [
        {
          "internalType": "uint256",
          "name": "",
          "type": "uint256"
        }
      ],
      "stateMutability": "view",
      "type": "function"
    },
    {
      "inputs": [],
      "name": "priceIncrement",
      "outputs": [
        {
          "internalType": "uint256",
          "name": "",
          "type": "uint256"
        }
      ],
      "stateMutability": "view",
      "type": "function"
    },
    {
      "inputs": [
        {
          "internalType": "uint256",
          "name": "tokenAmount",
          "type": "uint256"
        },
        {
          "internalType": "address",
          "name": "tokenAddress",
          "type": "address"
        }
      ],
      "name": "sellTokens",
      "outputs": [],
      "stateMutability": "nonpayable",
      "type": "function"
    },
    {
      "inputs": [],
      "name": "stablecoinAddress",
      "outputs": [
        {
          "internalType": "address",
          "name": "",
          "type": "address"
        }
      ],
      "stateMutability": "view",
      "type": "function"
    },
    {
      "inputs": [],
      "name": "uniswapRouter",
      "outputs": [
        {
          "internalType": "contract IUniswapV2Router02",
          "name": "",
          "type": "address"
        }
      ],
      "stateMutability": "view",
      "type": "function"
    }
  ],
  "bytecode": "0x608060405234801561001057600080fd5b5060405161289e38038061289e83398181016040528101906100329190610163565b83600160006101000a81548173ffffffffffffffffffffffffffffffffffffffff021916908373ffffffffffffffffffffffffffffffffffffffff160217905550826000806101000a81548173ffffffffffffffffffffffffffffffffffffffff021916908373ffffffffffffffffffffffffffffffffffffffff1602179055508160028190555080600381905550505050506101ca565b600080fd5b600073ffffffffffffffffffffffffffffffffffffffff82169050919050565b60006100fa826100cf565b9050919050565b61010a816100ef565b811461011557600080fd5b50565b60008151905061012781610101565b92915050565b6000819050919050565b6101408161012d565b811461014b57600080fd5b50565b60008151905061015d81610137565b92915050565b6000806000806080858703121561017d5761017c6100ca565b5b600061018b87828801610118565b945050602061019c87828801610118565b93505060406101ad8782880161014e565b92505060606101be8782880161014e565b91505092959194509250565b6126c5806101d96000396000f3fe608060405234801561001057600080fd5b50600436106100885760003560e01c8063670f71511161005b578063670f715114610129578063735de9f714610145578063c625e9b114610163578063c7876ea41461017f57610088565b8063280d62ac1461008d57806347850b7c146100ab5780635517989e146100db578063615737ef1461010b575b600080fd5b61009561019d565b6040516100a291906115bb565b60405180910390f35b6100c560048036038101906100c09190611674565b6101a3565b6040516100d291906115bb565b60405180910390f35b6100f560048036038101906100f09190611674565b6102b1565b60405161010291906115bb565b60405180910390f35b6101136103bf565b60405161012091906116c3565b60405180910390f35b610143600480360381019061013e9190611674565b6103e5565b005b61014d610788565b60405161015a919061173d565b60405180910390f35b61017d60048036038101906101789190611674565b6107ac565b005b610187610adf565b60405161019491906115bb565b60405180910390f35b60035481565b60008083116101e7576040517f08c379a00000000000000000000000000000000000000000000000000000000081526004016101de906117db565b60405180910390fd5b600073ffffffffffffffffffffffffffffffffffffffff168273ffffffffffffffffffffffffffffffffffffffff1603610256576040517f08c379a000000000000000000000000000000000000000000000000000000000815260040161024d90611847565b60405180910390fd5b60006102628484610ae5565b9050600081116102a7576040517f08c379a000000000000000000000000000000000000000000000000000000000815260040161029e906118d9565b60405180910390fd5b8091505092915050565b60008083116102f5576040517f08c379a00000000000000000000000000000000000000000000000000000000081526004016102ec906117db565b60405180910390fd5b600073ffffffffffffffffffffffffffffffffffffffff168273ffffffffffffffffffffffffffffffffffffffff1603610364576040517f08c379a000000000000000000000000000000000000000000000000000000000815260040161035b90611847565b60405180910390fd5b60006103708484610cdc565b9050600081116103b5576040517f08c379a00000000000000000000000000000000000000000000000000000000081526004016103ac906118d9565b60405180910390fd5b8091505092915050565b600160009054906101000a900473ffffffffffffffffffffffffffffffffffffffff1681565b60008211610428576040517f08c379a000000000000000000000000000000000000000000000000000000000815260040161041f90611945565b60405180910390fd5b818173ffffffffffffffffffffffffffffffffffffffff166370a08231336040518263ffffffff1660e01b815260040161046291906116c3565b602060405180830381865afa15801561047f573d6000803e3d6000fd5b505050506040513d601f19601f820116820180604052508101906104a3919061197a565b10156104e4576040517f08c379a00000000000000000000000000000000000000000000000000000000081526004016104db906119f3565b60405180910390fd5b600073ffffffffffffffffffffffffffffffffffffffff168173ffffffffffffffffffffffffffffffffffffffff1603610553576040517f08c379a000000000000000000000000000000000000000000000000000000000815260040161054a90611847565b60405180910390fd5b60008173ffffffffffffffffffffffffffffffffffffffff166370a08231306040518263ffffffff1660e01b815260040161058e91906116c3565b602060405180830381865afa1580156105ab573d6000803e3d6000fd5b505050506040513d601f19601f820116820180604052508101906105cf919061197a565b905060008082111561070e576105e58484610cdc565b90508273ffffffffffffffffffffffffffffffffffffffff166323b872dd3330876040518463ffffffff1660e01b815260040161062493929190611a13565b6020604051808303816000875af1158015610643573d6000803e3d6000fd5b505050506040513d601f19601f820116820180604052508101906106679190611a82565b50600160009054906101000a900473ffffffffffffffffffffffffffffffffffffffff1673ffffffffffffffffffffffffffffffffffffffff1663a9059cbb33836040518363ffffffff1660e01b81526004016106c5929190611aaf565b6020604051808303816000875af11580156106e4573d6000803e3d6000fd5b505050506040513d601f19601f820116820180604052508101906107089190611a82565b5061071b565b6107188484610e7b565b90505b8273ffffffffffffffffffffffffffffffffffffffff163373ffffffffffffffffffffffffffffffffffffffff167f697c42d55a5e1fed3f464ec6f38b32546a0bd368dc8068b065c67566d73f3290868460405161077a929190611ad8565b60405180910390a350505050565b60008054906101000a900473ffffffffffffffffffffffffffffffffffffffff1681565b600082116107ef576040517f08c379a00000000000000000000000000000000000000000000000000000000081526004016107e690611b73565b60405180910390fd5b600073ffffffffffffffffffffffffffffffffffffffff168173ffffffffffffffffffffffffffffffffffffffff160361085e576040517f08c379a000000000000000000000000000000000000000000000000000000000815260040161085590611847565b60405180910390fd5b60008173ffffffffffffffffffffffffffffffffffffffff166370a08231306040518263ffffffff1660e01b815260040161089991906116c3565b602060405180830381865afa1580156108b6573d6000803e3d6000fd5b505050506040513d601f19601f820116820180604052508101906108da919061197a565b9050600080821115610a65576108f08484610ae5565b905081811015610a60578181111561093d576040517f08c379a000000000000000000000000000000000000000000000000000000000815260040161093490611bdf565b60405180910390fd5b8273ffffffffffffffffffffffffffffffffffffffff1663a9059cbb33836040518363ffffffff1660e01b8152600401610978929190611aaf565b6020604051808303816000875af1158015610997573d6000803e3d6000fd5b505050506040513d601f19601f820116820180604052508101906109bb9190611a82565b50600160009054906101000a900473ffffffffffffffffffffffffffffffffffffffff1673ffffffffffffffffffffffffffffffffffffffff166323b872dd3330876040518463ffffffff1660e01b8152600401610a1b93929190611a13565b6020604051808303816000875af1158015610a3a573d6000803e3d6000fd5b505050506040513d601f19601f82011682018060405250810190610a5e9190611a82565b505b610a72565b610a6f84846110ff565b90505b8273ffffffffffffffffffffffffffffffffffffffff163373ffffffffffffffffffffffffffffffffffffffff167fc244d500136edffae7025aaf7fbd7a07193ac544a1d0cc3132cf2a32452d340c8684604051610ad1929190611ad8565b60405180910390a350505050565b60025481565b60008064e8d4a510009050600064e8d4a510008473ffffffffffffffffffffffffffffffffffffffff166370a08231306040518263ffffffff1660e01b8152600401610b3191906116c3565b602060405180830381865afa158015610b4e573d6000803e3d6000fd5b505050506040513d601f19601f82011682018060405250810190610b72919061197a565b610b7c9190611c5d565b82610b879190611c8e565b90506000811015610bcd576040517f08c379a0000000000000000000000000000000000000000000000000000000008152600401610bc490611d34565b60405180910390fd5b60006002549050600060035490506000879050600084610c188687610bf29190611d54565b858786610bff9190611c8e565b610c099190611c5d565b610c139190611d96565b6113a5565b610c229190611c8e565b905060008211610c318361141a565b610c3a8661141a565b610c438661141a565b610c4c8961141a565b610c558761141a565b604051602001610c6995949392919061204f565b60405160208183030381529060405290610cb9576040517f08c379a0000000000000000000000000000000000000000000000000000000008152600401610cb09190612152565b60405180910390fd5b50670de0b6b3a764000081610cce9190611d54565b965050505050505092915050565b60008064e8d4a510009050600064e8d4a510008473ffffffffffffffffffffffffffffffffffffffff166370a08231306040518263ffffffff1660e01b8152600401610d2891906116c3565b602060405180830381865afa158015610d45573d6000803e3d6000fd5b505050506040513d601f19601f82011682018060405250810190610d69919061197a565b610d739190611c5d565b82610d7e9190611c8e565b90506000600254905060006003549050600082600285610d9e91906122b4565b6002868b610dac9190611d96565b610db691906122b4565b610dc09190611c8e565b83610dcb9190611d54565b610dd59190611d96565b9050600a8111610de48261141a565b610ded8561141a565b610df68561141a565b610dff8861141a565b610e088661141a565b604051602001610e1c95949392919061204f565b60405160208183030381529060405290610e6c576040517f08c379a0000000000000000000000000000000000000000000000000000000008152600401610e639190612152565b60405180910390fd5b50809550505050505092915050565b60008173ffffffffffffffffffffffffffffffffffffffff1663095ea7b360008054906101000a900473ffffffffffffffffffffffffffffffffffffffff16856040518363ffffffff1660e01b8152600401610ed8929190611aaf565b6020604051808303816000875af1158015610ef7573d6000803e3d6000fd5b505050506040513d601f19601f82011682018060405250810190610f1b9190611a82565b506000600267ffffffffffffffff811115610f3957610f386122ff565b5b604051908082528060200260200182016040528015610f675781602001602082028036833780820191505090505b5090508281600081518110610f7f57610f7e61232e565b5b602002602001019073ffffffffffffffffffffffffffffffffffffffff16908173ffffffffffffffffffffffffffffffffffffffff1681525050600160009054906101000a900473ffffffffffffffffffffffffffffffffffffffff1681600181518110610ff057610fef61232e565b5b602002602001019073ffffffffffffffffffffffffffffffffffffffff16908173ffffffffffffffffffffffffffffffffffffffff168152505060008060009054906101000a900473ffffffffffffffffffffffffffffffffffffffff1673ffffffffffffffffffffffffffffffffffffffff166338ed17398660008530426040518663ffffffff1660e01b815260040161108f959493929190612456565b6000604051808303816000875af11580156110ae573d6000803e3d6000fd5b505050506040513d6000823e3d601f19601f820116820180604052508101906110d791906125c9565b9050806001815181106110ed576110ec61232e565b5b60200260200101519250505092915050565b6000600160009054906101000a900473ffffffffffffffffffffffffffffffffffffffff1673ffffffffffffffffffffffffffffffffffffffff1663095ea7b360008054906101000a900473ffffffffffffffffffffffffffffffffffffffff16856040518363ffffffff1660e01b815260040161117e929190611aaf565b6020604051808303816000875af115801561119d573d6000803e3d6000fd5b505050506040513d601f19601f820116820180604052508101906111c19190611a82565b506000600267ffffffffffffffff8111156111df576111de6122ff565b5b60405190808252806020026020018201604052801561120d5781602001602082028036833780820191505090505b509050600160009054906101000a900473ffffffffffffffffffffffffffffffffffffffff16816000815181106112475761124661232e565b5b602002602001019073ffffffffffffffffffffffffffffffffffffffff16908173ffffffffffffffffffffffffffffffffffffffff168152505082816001815181106112965761129561232e565b5b602002602001019073ffffffffffffffffffffffffffffffffffffffff16908173ffffffffffffffffffffffffffffffffffffffff168152505060008060009054906101000a900473ffffffffffffffffffffffffffffffffffffffff1673ffffffffffffffffffffffffffffffffffffffff166338ed17398660008530426040518663ffffffff1660e01b8152600401611335959493929190612456565b6000604051808303816000875af1158015611354573d6000803e3d6000fd5b505050506040513d6000823e3d601f19601f8201168201806040525081019061137d91906125c9565b9050806001815181106113935761139261232e565b5b60200260200101519250505092915050565b60008082036113b75760009050611415565b600060026001846113c89190611d96565b6113d29190611c5d565b905060008390505b8082101561140f5781905060028283866113f49190611c5d565b6113fe9190611d96565b6114089190611c5d565b91506113da565b80925050505b919050565b606060008203611461576040518060400160405280600181526020017f3000000000000000000000000000000000000000000000000000000000000000815250905061159d565b600082905060005b6000821461149357808061147c90612612565b915050600a8261148c9190611c5d565b9150611469565b60008167ffffffffffffffff8111156114af576114ae6122ff565b5b6040519080825280601f01601f1916602001820160405280156114e15781602001600182028036833780820191505090505b50905060008290505b60008614611595576001816114ff9190611c8e565b90506000600a80886115119190611c5d565b61151b9190611d54565b876115269190611c8e565b6030611532919061265a565b905060008160f81b9050808484815181106115505761154f61232e565b5b60200101907effffffffffffffffffffffffffffffffffffffffffffffffffffffffffffff1916908160001a905350600a8861158c9190611c5d565b975050506114ea565b819450505050505b919050565b6000819050919050565b6115b5816115a2565b82525050565b60006020820190506115d060008301846115ac565b92915050565b6000604051905090565b600080fd5b600080fd5b6115f3816115a2565b81146115fe57600080fd5b50565b600081359050611610816115ea565b92915050565b600073ffffffffffffffffffffffffffffffffffffffff82169050919050565b600061164182611616565b9050919050565b61165181611636565b811461165c57600080fd5b50565b60008135905061166e81611648565b92915050565b6000806040838503121561168b5761168a6115e0565b5b600061169985828601611601565b92505060206116aa8582860161165f565b9150509250929050565b6116bd81611636565b82525050565b60006020820190506116d860008301846116b4565b92915050565b6000819050919050565b60006117036116fe6116f984611616565b6116de565b611616565b9050919050565b6000611715826116e8565b9050919050565b60006117278261170a565b9050919050565b6117378161171c565b82525050565b6000602082019050611752600083018461172e565b92915050565b600082825260208201905092915050565b7f4d7573742073656e6420737461626c65636f696e20746f2063616c63756c617460008201527f6520746f6b656e73000000000000000000000000000000000000000000000000602082015250565b60006117c5602883611758565b91506117d082611769565b604082019050919050565b600060208201905081810360008301526117f4816117b8565b9050919050565b7f496e76616c696420746f6b656e20616464726573730000000000000000000000600082015250565b6000611831601583611758565b915061183c826117fb565b602082019050919050565b6000602082019050818103600083015261186081611824565b9050919050565b7f43616c63756c6174656420746f6b656e20616d6f756e74206d7573742062652060008201527f67726561746572207468616e207a65726f000000000000000000000000000000602082015250565b60006118c3603183611758565b91506118ce82611867565b604082019050919050565b600060208201905081810360008301526118f2816118b6565b9050919050565b7f4d7573742073656c6c206174206c65617374206f6e6520746f6b656e00000000600082015250565b600061192f601c83611758565b915061193a826118f9565b602082019050919050565b6000602082019050818103600083015261195e81611922565b9050919050565b600081519050611974816115ea565b92915050565b6000602082840312156119905761198f6115e0565b5b600061199e84828501611965565b91505092915050565b7f4e6f7420656e6f75676820746f6b656e7320746f2073656c6c00000000000000600082015250565b60006119dd601983611758565b91506119e8826119a7565b602082019050919050565b60006020820190508181036000830152611a0c816119d0565b9050919050565b6000606082019050611a2860008301866116b4565b611a3560208301856116b4565b611a4260408301846115ac565b949350505050565b60008115159050919050565b611a5f81611a4a565b8114611a6a57600080fd5b50565b600081519050611a7c81611a56565b92915050565b600060208284031215611a9857611a976115e0565b5b6000611aa684828501611a6d565b91505092915050565b6000604082019050611ac460008301856116b4565b611ad160208301846115ac565b9392505050565b6000604082019050611aed60008301856115ac565b611afa60208301846115ac565b9392505050565b7f4d7573742073656e6420737461626c65636f696e20746f2062757920746f6b6560008201527f6e73000000000000000000000000000000000000000000000000000000000000602082015250565b6000611b5d602283611758565b9150611b6882611b01565b604082019050919050565b60006020820190508181036000830152611b8c81611b50565b9050919050565b7f4e6f7420656e6f75676820746f6b656e7320617661696c61626c650000000000600082015250565b6000611bc9601b83611758565b9150611bd482611b93565b602082019050919050565b60006020820190508181036000830152611bf881611bbc565b9050919050565b7f4e487b7100000000000000000000000000000000000000000000000000000000600052601260045260246000fd5b7f4e487b7100000000000000000000000000000000000000000000000000000000600052601160045260246000fd5b6000611c68826115a2565b9150611c73836115a2565b925082611c8357611c82611bff565b5b828204905092915050565b6000611c99826115a2565b9150611ca4836115a2565b9250828203905081811115611cbc57611cbb611c2e565b5b92915050565b7f4e6f206d6f726520746f6b656e7320617661696c61626c6520666f722073616c60008201527f6500000000000000000000000000000000000000000000000000000000000000602082015250565b6000611d1e602183611758565b9150611d2982611cc2565b604082019050919050565b60006020820190508181036000830152611d4d81611d11565b9050919050565b6000611d5f826115a2565b9150611d6a836115a2565b9250828202611d78816115a2565b91508282048414831517611d8f57611d8e611c2e565b5b5092915050565b6000611da1826115a2565b9150611dac836115a2565b9250828201905080821115611dc457611dc3611c2e565b5b92915050565b600081905092915050565b7f44554d50206571756174696f6e2076616c7565733a2000000000000000000000600082015250565b6000611e0b601683611dca565b9150611e1682611dd5565b601682019050919050565b7f737461626c65636f696e416d6f756e7461646a3a200000000000000000000000600082015250565b6000611e57601583611dca565b9150611e6282611e21565b601582019050919050565b600081519050919050565b60005b83811015611e96578082015181840152602081019050611e7b565b60008484015250505050565b6000611ead82611e6d565b611eb78185611dca565b9350611ec7818560208601611e78565b80840191505092915050565b7f2c20000000000000000000000000000000000000000000000000000000000000600082015250565b6000611f09600283611dca565b9150611f1482611ed3565b600282019050919050565b7f62617365507269636561646a3a20000000000000000000000000000000000000600082015250565b6000611f55600e83611dca565b9150611f6082611f1f565b600e82019050919050565b7f7072696365496e6372656d656e7461646a3a2000000000000000000000000000600082015250565b6000611fa1601383611dca565b9150611fac82611f6b565b601382019050919050565b7f63757272656e74537570706c793a200000000000000000000000000000000000600082015250565b6000611fed600f83611dca565b9150611ff882611fb7565b600f82019050919050565b7f746f6b656e416d6f756e743a2000000000000000000000000000000000000000600082015250565b6000612039600d83611dca565b915061204482612003565b600d82019050919050565b600061205a82611dfe565b915061206582611e4a565b91506120718288611ea2565b915061207c82611efc565b915061208782611f48565b91506120938287611ea2565b915061209e82611efc565b91506120a982611f94565b91506120b58286611ea2565b91506120c082611efc565b91506120cb82611fe0565b91506120d78285611ea2565b91506120e282611efc565b91506120ed8261202c565b91506120f98284611ea2565b91508190509695505050505050565b6000601f19601f8301169050919050565b600061212482611e6d565b61212e8185611758565b935061213e818560208601611e78565b61214781612108565b840191505092915050565b6000602082019050818103600083015261216c8184612119565b905092915050565b60008160011c9050919050565b6000808291508390505b60018511156121cb578086048111156121a7576121a6611c2e565b5b60018516156121b65780820291505b80810290506121c485612174565b945061218b565b94509492505050565b6000826121e457600190506122a0565b816121f257600090506122a0565b8160018114612208576002811461221257612241565b60019150506122a0565b60ff84111561222457612223611c2e565b5b8360020a91508482111561223b5761223a611c2e565b5b506122a0565b5060208310610133831016604e8410600b84101617156122765782820a90508381111561227157612270611c2e565b5b6122a0565b6122838484846001612181565b9250905081840481111561229a57612299611c2e565b5b81810290505b9392505050565b600060ff82169050919050565b60006122bf826115a2565b91506122ca836122a7565b92506122f77fffffffffffffffffffffffffffffffffffffffffffffffffffffffffffffffff84846121d4565b905092915050565b7f4e487b7100000000000000000000000000000000000000000000000000000000600052604160045260246000fd5b7f4e487b7100000000000000000000000000000000000000000000000000000000600052603260045260246000fd5b6000819050919050565b600061238261237d6123788461235d565b6116de565b6115a2565b9050919050565b61239281612367565b82525050565b600081519050919050565b600082825260208201905092915050565b6000819050602082019050919050565b6123cd81611636565b82525050565b60006123df83836123c4565b60208301905092915050565b6000602082019050919050565b600061240382612398565b61240d81856123a3565b9350612418836123b4565b8060005b8381101561244957815161243088826123d3565b975061243b836123eb565b92505060018101905061241c565b5085935050505092915050565b600060a08201905061246b60008301886115ac565b6124786020830187612389565b818103604083015261248a81866123f8565b905061249960608301856116b4565b6124a660808301846115ac565b9695505050505050565b600080fd5b6124be82612108565b810181811067ffffffffffffffff821117156124dd576124dc6122ff565b5b80604052505050565b60006124f06115d6565b90506124fc82826124b5565b919050565b600067ffffffffffffffff82111561251c5761251b6122ff565b5b602082029050602081019050919050565b600080fd5b600061254561254084612501565b6124e6565b905080838252602082019050602084028301858111156125685761256761252d565b5b835b81811015612591578061257d8882611965565b84526020840193505060208101905061256a565b5050509392505050565b600082601f8301126125b0576125af6124b0565b5b81516125c0848260208601612532565b91505092915050565b6000602082840312156125df576125de6115e0565b5b600082015167ffffffffffffffff8111156125fd576125fc6115e5565b5b6126098482850161259b565b91505092915050565b600061261d826115a2565b91507fffffffffffffffffffffffffffffffffffffffffffffffffffffffffffffffff820361264f5761264e611c2e565b5b600182019050919050565b6000612665826122a7565b9150612670836122a7565b9250828201905060ff81111561268957612688611c2e565b5b9291505056fea2646970667358221220e636b57e092a4160ab5203ba2334f0aff2c714f474ad121caa8d9c87ec36be1964736f6c634300081b0033",
  "linkReferences": {},
  "deployedLinkReferences": {}
}