{
  "_format": "hh-sol-artifact-1",
  "contractName": "Staking",
  "sourceName": "contracts/Staking.sol",
  "abi": [
    {
      "inputs": [
        {
          "internalType": "uint256",
          "name": "_rewardRate",
          "type": "uint256"
        },
        {
          "internalType": "address",
          "name": "_adminWallet",
          "type": "address"
        }
      ],
      "stateMutability": "nonpayable",
      "type": "constructor"
    },
    {
      "inputs": [
        {
          "internalType": "address",
          "name": "owner",
          "type": "address"
        }
      ],
      "name": "OwnableInvalidOwner",
      "type": "error"
    },
    {
      "inputs": [
        {
          "internalType": "address",
          "name": "account",
          "type": "address"
        }
      ],
      "name": "OwnableUnauthorizedAccount",
      "type": "error"
    },
    {
      "anonymous": false,
      "inputs": [
        {
          "indexed": true,
          "internalType": "address",
          "name": "previousOwner",
          "type": "address"
        },
        {
          "indexed": true,
          "internalType": "address",
          "name": "newOwner",
          "type": "address"
        }
      ],
      "name": "OwnershipTransferred",
      "type": "event"
    },
    {
      "anonymous": false,
      "inputs": [
        {
          "indexed": true,
          "internalType": "address",
          "name": "user",
          "type": "address"
        },
        {
          "indexed": false,
          "internalType": "uint256",
          "name": "reward",
          "type": "uint256"
        }
      ],
      "name": "RewardPaid",
      "type": "event"
    },
    {
      "anonymous": false,
      "inputs": [
        {
          "indexed": true,
          "internalType": "address",
          "name": "user",
          "type": "address"
        },
        {
          "indexed": false,
          "internalType": "uint256",
          "name": "amount",
          "type": "uint256"
        }
      ],
      "name": "Staked",
      "type": "event"
    },
    {
      "anonymous": false,
      "inputs": [
        {
          "indexed": true,
          "internalType": "address",
          "name": "user",
          "type": "address"
        },
        {
          "indexed": false,
          "internalType": "uint256",
          "name": "amount",
          "type": "uint256"
        }
      ],
      "name": "Unstaked",
      "type": "event"
    },
    {
      "inputs": [
        {
          "internalType": "address",
          "name": "user",
          "type": "address"
        }
      ],
      "name": "calculateReward",
      "outputs": [
        {
          "internalType": "uint256",
          "name": "",
          "type": "uint256"
        }
      ],
      "stateMutability": "view",
      "type": "function"
    },
    {
      "inputs": [],
      "name": "owner",
      "outputs": [
        {
          "internalType": "address",
          "name": "",
          "type": "address"
        }
      ],
      "stateMutability": "view",
      "type": "function"
    },
    {
      "inputs": [],
      "name": "renounceOwnership",
      "outputs": [],
      "stateMutability": "nonpayable",
      "type": "function"
    },
    {
      "inputs": [],
      "name": "rewardRate",
      "outputs": [
        {
          "internalType": "uint256",
          "name": "",
          "type": "uint256"
        }
      ],
      "stateMutability": "view",
      "type": "function"
    },
    {
      "inputs": [
        {
          "internalType": "address",
          "name": "tokenAddress",
          "type": "address"
        },
        {
          "internalType": "uint256",
          "name": "amount",
          "type": "uint256"
        }
      ],
      "name": "stakeTokens",
      "outputs": [],
      "stateMutability": "nonpayable",
      "type": "function"
    },
    {
      "inputs": [
        {
          "internalType": "address",
          "name": "",
          "type": "address"
        }
      ],
      "name": "stakes",
      "outputs": [
        {
          "internalType": "uint256",
          "name": "amount",
          "type": "uint256"
        },
        {
          "internalType": "uint256",
          "name": "timestamp",
          "type": "uint256"
        }
      ],
      "stateMutability": "view",
      "type": "function"
    },
    {
      "inputs": [
        {
          "internalType": "address",
          "name": "newOwner",
          "type": "address"
        }
      ],
      "name": "transferOwnership",
      "outputs": [],
      "stateMutability": "nonpayable",
      "type": "function"
    },
    {
      "inputs": [
        {
          "internalType": "address",
          "name": "tokenAddress",
          "type": "address"
        }
      ],
      "name": "unstakeTokens",
      "outputs": [],
      "stateMutability": "nonpayable",
      "type": "function"
    }
  ],
  "bytecode": "0x608060405234801561001057600080fd5b506040516110c53803806110c58339818101604052810190610032919061028f565b80600073ffffffffffffffffffffffffffffffffffffffff168173ffffffffffffffffffffffffffffffffffffffff16036100a55760006040517f1e4fbdf700000000000000000000000000000000000000000000000000000000815260040161009c91906102de565b60405180910390fd5b6100b48161013260201b60201c565b50600073ffffffffffffffffffffffffffffffffffffffff168173ffffffffffffffffffffffffffffffffffffffff1603610124576040517f08c379a000000000000000000000000000000000000000000000000000000000815260040161011b9061037c565b60405180910390fd5b81600281905550505061039c565b60008060009054906101000a900473ffffffffffffffffffffffffffffffffffffffff169050816000806101000a81548173ffffffffffffffffffffffffffffffffffffffff021916908373ffffffffffffffffffffffffffffffffffffffff1602179055508173ffffffffffffffffffffffffffffffffffffffff168173ffffffffffffffffffffffffffffffffffffffff167f8be0079c531659141344cd1fd0a4f28419497f9722a3daafe3b4186f6b6457e060405160405180910390a35050565b600080fd5b6000819050919050565b61020e816101fb565b811461021957600080fd5b50565b60008151905061022b81610205565b92915050565b600073ffffffffffffffffffffffffffffffffffffffff82169050919050565b600061025c82610231565b9050919050565b61026c81610251565b811461027757600080fd5b50565b60008151905061028981610263565b92915050565b600080604083850312156102a6576102a56101f6565b5b60006102b48582860161021c565b92505060206102c58582860161027a565b9150509250929050565b6102d881610251565b82525050565b60006020820190506102f360008301846102cf565b92915050565b600082825260208201905092915050565b7f41646d696e2077616c6c65742063616e6e6f7420626520746865207a65726f2060008201527f6164647265737300000000000000000000000000000000000000000000000000602082015250565b60006103666027836102f9565b91506103718261030a565b604082019050919050565b6000602082019050818103600083015261039581610359565b9050919050565b610d1a806103ab6000396000f3fe608060405234801561001057600080fd5b50600436106100885760003560e01c80637b0a47ee1161005b5780637b0a47ee146101005780638da5cb5b1461011e578063d82e39621461013c578063f2fde38b1461016c57610088565b806316934fc41461008d5780632d1ad8b8146100be578063715018a6146100da57806379a83f5a146100e4575b600080fd5b6100a760048036038101906100a291906108dd565b610188565b6040516100b5929190610923565b60405180910390f35b6100d860048036038101906100d391906108dd565b6101ac565b005b6100e2610400565b005b6100fe60048036038101906100f99190610978565b610414565b005b6101086105ca565b60405161011591906109b8565b60405180910390f35b6101266105d0565b60405161013391906109e2565b60405180910390f35b610156600480360381019061015191906108dd565b6105f9565b60405161016391906109b8565b60405180910390f35b610186600480360381019061018191906108dd565b6106a1565b005b60016020528060005260406000206000915090508060000154908060010154905082565b6000600160003373ffffffffffffffffffffffffffffffffffffffff1673ffffffffffffffffffffffffffffffffffffffff16815260200190815260200160002090506000816000015411610236576040517f08c379a000000000000000000000000000000000000000000000000000000000815260040161022d90610a5a565b60405180910390fd5b6000610241336105f9565b9050600082600001549050600083600001819055508373ffffffffffffffffffffffffffffffffffffffff1663a9059cbb33836040518363ffffffff1660e01b8152600401610291929190610a7a565b6020604051808303816000875af11580156102b0573d6000803e3d6000fd5b505050506040513d601f19601f820116820180604052508101906102d49190610adb565b5060008211156103ac578373ffffffffffffffffffffffffffffffffffffffff1663a9059cbb33846040518363ffffffff1660e01b8152600401610319929190610a7a565b6020604051808303816000875af1158015610338573d6000803e3d6000fd5b505050506040513d601f19601f8201168201806040525081019061035c9190610adb565b503373ffffffffffffffffffffffffffffffffffffffff167fe2403640ba68fed3a2f88b7557551d1993f84b99bb10ff833f0cf8db0c5e0486836040516103a391906109b8565b60405180910390a25b3373ffffffffffffffffffffffffffffffffffffffff167f0f5bb82176feb1b5e747e28471aa92156a04d9f3ab9f45f28e2d704232b93f75826040516103f291906109b8565b60405180910390a250505050565b610408610727565b61041260006107ae565b565b60008111610457576040517f08c379a000000000000000000000000000000000000000000000000000000000815260040161044e90610b54565b60405180910390fd5b8173ffffffffffffffffffffffffffffffffffffffff166323b872dd3330846040518463ffffffff1660e01b815260040161049493929190610b74565b6020604051808303816000875af11580156104b3573d6000803e3d6000fd5b505050506040513d601f19601f820116820180604052508101906104d79190610adb565b5080600160003373ffffffffffffffffffffffffffffffffffffffff1673ffffffffffffffffffffffffffffffffffffffff168152602001908152602001600020600001600082825461052a9190610bda565b9250508190555042600160003373ffffffffffffffffffffffffffffffffffffffff1673ffffffffffffffffffffffffffffffffffffffff168152602001908152602001600020600101819055503373ffffffffffffffffffffffffffffffffffffffff167f9e71bc8eea02a63969f509818f2dafb9254532904319f9dbda79b67bd34a5f3d826040516105be91906109b8565b60405180910390a25050565b60025481565b60008060009054906101000a900473ffffffffffffffffffffffffffffffffffffffff16905090565b600080600160008473ffffffffffffffffffffffffffffffffffffffff1673ffffffffffffffffffffffffffffffffffffffff1681526020019081526020016000209050600081600001540361065357600091505061069c565b60008160010154426106659190610c0e565b9050670de0b6b3a76400006002548360000154836106839190610c42565b61068d9190610c42565b6106979190610cb3565b925050505b919050565b6106a9610727565b600073ffffffffffffffffffffffffffffffffffffffff168173ffffffffffffffffffffffffffffffffffffffff160361071b5760006040517f1e4fbdf700000000000000000000000000000000000000000000000000000000815260040161071291906109e2565b60405180910390fd5b610724816107ae565b50565b61072f610872565b73ffffffffffffffffffffffffffffffffffffffff1661074d6105d0565b73ffffffffffffffffffffffffffffffffffffffff16146107ac57610770610872565b6040517f118cdaa70000000000000000000000000000000000000000000000000000000081526004016107a391906109e2565b60405180910390fd5b565b60008060009054906101000a900473ffffffffffffffffffffffffffffffffffffffff169050816000806101000a81548173ffffffffffffffffffffffffffffffffffffffff021916908373ffffffffffffffffffffffffffffffffffffffff1602179055508173ffffffffffffffffffffffffffffffffffffffff168173ffffffffffffffffffffffffffffffffffffffff167f8be0079c531659141344cd1fd0a4f28419497f9722a3daafe3b4186f6b6457e060405160405180910390a35050565b600033905090565b600080fd5b600073ffffffffffffffffffffffffffffffffffffffff82169050919050565b60006108aa8261087f565b9050919050565b6108ba8161089f565b81146108c557600080fd5b50565b6000813590506108d7816108b1565b92915050565b6000602082840312156108f3576108f261087a565b5b6000610901848285016108c8565b91505092915050565b6000819050919050565b61091d8161090a565b82525050565b60006040820190506109386000830185610914565b6109456020830184610914565b9392505050565b6109558161090a565b811461096057600080fd5b50565b6000813590506109728161094c565b92915050565b6000806040838503121561098f5761098e61087a565b5b600061099d858286016108c8565b92505060206109ae85828601610963565b9150509250929050565b60006020820190506109cd6000830184610914565b92915050565b6109dc8161089f565b82525050565b60006020820190506109f760008301846109d3565b92915050565b600082825260208201905092915050565b7f4e6f20746f6b656e73207374616b656400000000000000000000000000000000600082015250565b6000610a446010836109fd565b9150610a4f82610a0e565b602082019050919050565b60006020820190508181036000830152610a7381610a37565b9050919050565b6000604082019050610a8f60008301856109d3565b610a9c6020830184610914565b9392505050565b60008115159050919050565b610ab881610aa3565b8114610ac357600080fd5b50565b600081519050610ad581610aaf565b92915050565b600060208284031215610af157610af061087a565b5b6000610aff84828501610ac6565b91505092915050565b7f4d757374207374616b65206d6f7265207468616e203000000000000000000000600082015250565b6000610b3e6016836109fd565b9150610b4982610b08565b602082019050919050565b60006020820190508181036000830152610b6d81610b31565b9050919050565b6000606082019050610b8960008301866109d3565b610b9660208301856109d3565b610ba36040830184610914565b949350505050565b7f4e487b7100000000000000000000000000000000000000000000000000000000600052601160045260246000fd5b6000610be58261090a565b9150610bf08361090a565b9250828201905080821115610c0857610c07610bab565b5b92915050565b6000610c198261090a565b9150610c248361090a565b9250828203905081811115610c3c57610c3b610bab565b5b92915050565b6000610c4d8261090a565b9150610c588361090a565b9250828202610c668161090a565b91508282048414831517610c7d57610c7c610bab565b5b5092915050565b7f4e487b7100000000000000000000000000000000000000000000000000000000600052601260045260246000fd5b6000610cbe8261090a565b9150610cc98361090a565b925082610cd957610cd8610c84565b5b82820490509291505056fea2646970667358221220b3bd047d8cdcc3982681085568594440ec77946662b31d2e8291be39dc0d8f0564736f6c634300081b0033",
  "linkReferences": {},
  "deployedLinkReferences": {}
}