{
  "_format": "hh-sol-artifact-1",
  "contractName": "TokenMint",
  "sourceName": "contracts/TokenMint.sol",
  "abi": [
    {
      "inputs": [
        {
          "internalType": "string",
          "name": "name",
          "type": "string"
        },
        {
          "internalType": "string",
          "name": "symbol",
          "type": "string"
        },
        {
          "internalType": "address",
          "name": "_treasuryAddress",
          "type": "address"
        },
        {
          "internalType": "address",
          "name": "_bondingCurveAddress",
          "type": "address"
        }
      ],
      "stateMutability": "nonpayable",
      "type": "constructor"
    },
    {
      "inputs": [
        {
          "internalType": "address",
          "name": "spender",
          "type": "address"
        },
        {
          "internalType": "uint256",
          "name": "allowance",
          "type": "uint256"
        },
        {
          "internalType": "uint256",
          "name": "needed",
          "type": "uint256"
        }
      ],
      "name": "ERC20InsufficientAllowance",
      "type": "error"
    },
    {
      "inputs": [
        {
          "internalType": "address",
          "name": "sender",
          "type": "address"
        },
        {
          "internalType": "uint256",
          "name": "balance",
          "type": "uint256"
        },
        {
          "internalType": "uint256",
          "name": "needed",
          "type": "uint256"
        }
      ],
      "name": "ERC20InsufficientBalance",
      "type": "error"
    },
    {
      "inputs": [
        {
          "internalType": "address",
          "name": "approver",
          "type": "address"
        }
      ],
      "name": "ERC20InvalidApprover",
      "type": "error"
    },
    {
      "inputs": [
        {
          "internalType": "address",
          "name": "receiver",
          "type": "address"
        }
      ],
      "name": "ERC20InvalidReceiver",
      "type": "error"
    },
    {
      "inputs": [
        {
          "internalType": "address",
          "name": "sender",
          "type": "address"
        }
      ],
      "name": "ERC20InvalidSender",
      "type": "error"
    },
    {
      "inputs": [
        {
          "internalType": "address",
          "name": "spender",
          "type": "address"
        }
      ],
      "name": "ERC20InvalidSpender",
      "type": "error"
    },
    {
      "anonymous": false,
      "inputs": [
        {
          "indexed": true,
          "internalType": "address",
          "name": "owner",
          "type": "address"
        },
        {
          "indexed": true,
          "internalType": "address",
          "name": "spender",
          "type": "address"
        },
        {
          "indexed": false,
          "internalType": "uint256",
          "name": "value",
          "type": "uint256"
        }
      ],
      "name": "Approval",
      "type": "event"
    },
    {
      "anonymous": false,
      "inputs": [
        {
          "indexed": true,
          "internalType": "address",
          "name": "from",
          "type": "address"
        },
        {
          "indexed": true,
          "internalType": "address",
          "name": "to",
          "type": "address"
        },
        {
          "indexed": false,
          "internalType": "uint256",
          "name": "value",
          "type": "uint256"
        }
      ],
      "name": "Transfer",
      "type": "event"
    },
    {
      "inputs": [
        {
          "internalType": "address",
          "name": "owner",
          "type": "address"
        },
        {
          "internalType": "address",
          "name": "spender",
          "type": "address"
        }
      ],
      "name": "allowance",
      "outputs": [
        {
          "internalType": "uint256",
          "name": "",
          "type": "uint256"
        }
      ],
      "stateMutability": "view",
      "type": "function"
    },
    {
      "inputs": [
        {
          "internalType": "address",
          "name": "spender",
          "type": "address"
        },
        {
          "internalType": "uint256",
          "name": "value",
          "type": "uint256"
        }
      ],
      "name": "approve",
      "outputs": [
        {
          "internalType": "bool",
          "name": "",
          "type": "bool"
        }
      ],
      "stateMutability": "nonpayable",
      "type": "function"
    },
    {
      "inputs": [
        {
          "internalType": "address",
          "name": "account",
          "type": "address"
        }
      ],
      "name": "balanceOf",
      "outputs": [
        {
          "internalType": "uint256",
          "name": "",
          "type": "uint256"
        }
      ],
      "stateMutability": "view",
      "type": "function"
    },
    {
      "inputs": [],
      "name": "bondingCurveAddress",
      "outputs": [
        {
          "internalType": "address",
          "name": "",
          "type": "address"
        }
      ],
      "stateMutability": "view",
      "type": "function"
    },
    {
      "inputs": [],
      "name": "decimals",
      "outputs": [
        {
          "internalType": "uint8",
          "name": "",
          "type": "uint8"
        }
      ],
      "stateMutability": "view",
      "type": "function"
    },
    {
      "inputs": [],
      "name": "name",
      "outputs": [
        {
          "internalType": "string",
          "name": "",
          "type": "string"
        }
      ],
      "stateMutability": "view",
      "type": "function"
    },
    {
      "inputs": [],
      "name": "symbol",
      "outputs": [
        {
          "internalType": "string",
          "name": "",
          "type": "string"
        }
      ],
      "stateMutability": "view",
      "type": "function"
    },
    {
      "inputs": [],
      "name": "totalSupply",
      "outputs": [
        {
          "internalType": "uint256",
          "name": "",
          "type": "uint256"
        }
      ],
      "stateMutability": "view",
      "type": "function"
    },
    {
      "inputs": [
        {
          "internalType": "address",
          "name": "to",
          "type": "address"
        },
        {
          "internalType": "uint256",
          "name": "value",
          "type": "uint256"
        }
      ],
      "name": "transfer",
      "outputs": [
        {
          "internalType": "bool",
          "name": "",
          "type": "bool"
        }
      ],
      "stateMutability": "nonpayable",
      "type": "function"
    },
    {
      "inputs": [
        {
          "internalType": "address",
          "name": "from",
          "type": "address"
        },
        {
          "internalType": "address",
          "name": "to",
          "type": "address"
        },
        {
          "internalType": "uint256",
          "name": "value",
          "type": "uint256"
        }
      ],
      "name": "transferFrom",
      "outputs": [
        {
          "internalType": "bool",
          "name": "",
          "type": "bool"
        }
      ],
      "stateMutability": "nonpayable",
      "type": "function"
    },
    {
      "inputs": [],
      "name": "treasuryAddress",
      "outputs": [
        {
          "internalType": "address",
          "name": "",
          "type": "address"
        }
      ],
      "stateMutability": "view",
      "type": "function"
    }
  ],
  "bytecode": "0x608060405234801561001057600080fd5b50604051611daf380380611daf833981810160405281019061003291906106f1565b8383816003908161004391906109b1565b50806004908161005391906109b1565b505050600073ffffffffffffffffffffffffffffffffffffffff168273ffffffffffffffffffffffffffffffffffffffff16036100c5576040517f08c379a00000000000000000000000000000000000000000000000000000000081526004016100bc90610ae0565b60405180910390fd5b600073ffffffffffffffffffffffffffffffffffffffff168173ffffffffffffffffffffffffffffffffffffffff1603610134576040517f08c379a000000000000000000000000000000000000000000000000000000000815260040161012b90610b72565b60405180910390fd5b81600560006101000a81548173ffffffffffffffffffffffffffffffffffffffff021916908373ffffffffffffffffffffffffffffffffffffffff16021790555080600660006101000a81548173ffffffffffffffffffffffffffffffffffffffff021916908373ffffffffffffffffffffffffffffffffffffffff16021790555060006101c661026860201b60201c565b600a6101d29190610d01565b621e84806101e09190610d4c565b9050610220600560009054906101000a900473ffffffffffffffffffffffffffffffffffffffff166002836102159190610dbd565b61027160201b60201c565b61025e600660009054906101000a900473ffffffffffffffffffffffffffffffffffffffff166002836102539190610dbd565b61027160201b60201c565b5050505050610ead565b60006012905090565b600073ffffffffffffffffffffffffffffffffffffffff168273ffffffffffffffffffffffffffffffffffffffff16036102e35760006040517fec442f050000000000000000000000000000000000000000000000000000000081526004016102da9190610dfd565b60405180910390fd5b6102f5600083836102f960201b60201c565b5050565b600073ffffffffffffffffffffffffffffffffffffffff168373ffffffffffffffffffffffffffffffffffffffff160361034b57806002600082825461033f9190610e18565b9250508190555061041e565b60008060008573ffffffffffffffffffffffffffffffffffffffff1673ffffffffffffffffffffffffffffffffffffffff168152602001908152602001600020549050818110156103d7578381836040517fe450d38c0000000000000000000000000000000000000000000000000000000081526004016103ce93929190610e5b565b60405180910390fd5b8181036000808673ffffffffffffffffffffffffffffffffffffffff1673ffffffffffffffffffffffffffffffffffffffff16815260200190815260200160002081905550505b600073ffffffffffffffffffffffffffffffffffffffff168273ffffffffffffffffffffffffffffffffffffffff160361046757806002600082825403925050819055506104b4565b806000808473ffffffffffffffffffffffffffffffffffffffff1673ffffffffffffffffffffffffffffffffffffffff168152602001908152602001600020600082825401925050819055505b8173ffffffffffffffffffffffffffffffffffffffff168373ffffffffffffffffffffffffffffffffffffffff167fddf252ad1be2c89b69c2b068fc378daa952ba7f163c4a11628f55a4df523b3ef836040516105119190610e92565b60405180910390a3505050565b6000604051905090565b600080fd5b600080fd5b600080fd5b600080fd5b6000601f19601f8301169050919050565b7f4e487b7100000000000000000000000000000000000000000000000000000000600052604160045260246000fd5b6105858261053c565b810181811067ffffffffffffffff821117156105a4576105a361054d565b5b80604052505050565b60006105b761051e565b90506105c3828261057c565b919050565b600067ffffffffffffffff8211156105e3576105e261054d565b5b6105ec8261053c565b9050602081019050919050565b60005b838110156106175780820151818401526020810190506105fc565b60008484015250505050565b6000610636610631846105c8565b6105ad565b90508281526020810184848401111561065257610651610537565b5b61065d8482856105f9565b509392505050565b600082601f83011261067a57610679610532565b5b815161068a848260208601610623565b91505092915050565b600073ffffffffffffffffffffffffffffffffffffffff82169050919050565b60006106be82610693565b9050919050565b6106ce816106b3565b81146106d957600080fd5b50565b6000815190506106eb816106c5565b92915050565b6000806000806080858703121561070b5761070a610528565b5b600085015167ffffffffffffffff8111156107295761072861052d565b5b61073587828801610665565b945050602085015167ffffffffffffffff8111156107565761075561052d565b5b61076287828801610665565b9350506040610773878288016106dc565b9250506060610784878288016106dc565b91505092959194509250565b600081519050919050565b7f4e487b7100000000000000000000000000000000000000000000000000000000600052602260045260246000fd5b600060028204905060018216806107e257607f821691505b6020821081036107f5576107f461079b565b5b50919050565b60008190508160005260206000209050919050565b60006020601f8301049050919050565b600082821b905092915050565b60006008830261085d7fffffffffffffffffffffffffffffffffffffffffffffffffffffffffffffffff82610820565b6108678683610820565b95508019841693508086168417925050509392505050565b6000819050919050565b6000819050919050565b60006108ae6108a96108a48461087f565b610889565b61087f565b9050919050565b6000819050919050565b6108c883610893565b6108dc6108d4826108b5565b84845461082d565b825550505050565b600090565b6108f16108e4565b6108fc8184846108bf565b505050565b5b81811015610920576109156000826108e9565b600181019050610902565b5050565b601f82111561096557610936816107fb565b61093f84610810565b8101602085101561094e578190505b61096261095a85610810565b830182610901565b50505b505050565b600082821c905092915050565b60006109886000198460080261096a565b1980831691505092915050565b60006109a18383610977565b9150826002028217905092915050565b6109ba82610790565b67ffffffffffffffff8111156109d3576109d261054d565b5b6109dd82546107ca565b6109e8828285610924565b600060209050601f831160018114610a1b5760008415610a09578287015190505b610a138582610995565b865550610a7b565b601f198416610a29866107fb565b60005b82811015610a5157848901518255600182019150602085019450602081019050610a2c565b86831015610a6e5784890151610a6a601f891682610977565b8355505b6001600288020188555050505b505050505050565b600082825260208201905092915050565b7f547265617375727920616464726573732063616e6e6f74206265207a65726f00600082015250565b6000610aca601f83610a83565b9150610ad582610a94565b602082019050919050565b60006020820190508181036000830152610af981610abd565b9050919050565b7f426f6e64696e6720637572766520616464726573732063616e6e6f742062652060008201527f7a65726f00000000000000000000000000000000000000000000000000000000602082015250565b6000610b5c602483610a83565b9150610b6782610b00565b604082019050919050565b60006020820190508181036000830152610b8b81610b4f565b9050919050565b7f4e487b7100000000000000000000000000000000000000000000000000000000600052601160045260246000fd5b60008160011c9050919050565b6000808291508390505b6001851115610c1857808604811115610bf457610bf3610b92565b5b6001851615610c035780820291505b8081029050610c1185610bc1565b9450610bd8565b94509492505050565b600082610c315760019050610ced565b81610c3f5760009050610ced565b8160018114610c555760028114610c5f57610c8e565b6001915050610ced565b60ff841115610c7157610c70610b92565b5b8360020a915084821115610c8857610c87610b92565b5b50610ced565b5060208310610133831016604e8410600b8410161715610cc35782820a905083811115610cbe57610cbd610b92565b5b610ced565b610cd08484846001610bce565b92509050818404811115610ce757610ce6610b92565b5b81810290505b9392505050565b600060ff82169050919050565b6000610d0c8261087f565b9150610d1783610cf4565b9250610d447fffffffffffffffffffffffffffffffffffffffffffffffffffffffffffffffff8484610c21565b905092915050565b6000610d578261087f565b9150610d628361087f565b9250828202610d708161087f565b91508282048414831517610d8757610d86610b92565b5b5092915050565b7f4e487b7100000000000000000000000000000000000000000000000000000000600052601260045260246000fd5b6000610dc88261087f565b9150610dd38361087f565b925082610de357610de2610d8e565b5b828204905092915050565b610df7816106b3565b82525050565b6000602082019050610e126000830184610dee565b92915050565b6000610e238261087f565b9150610e2e8361087f565b9250828201905080821115610e4657610e45610b92565b5b92915050565b610e558161087f565b82525050565b6000606082019050610e706000830186610dee565b610e7d6020830185610e4c565b610e8a6040830184610e4c565b949350505050565b6000602082019050610ea76000830184610e4c565b92915050565b610ef380610ebc6000396000f3fe608060405234801561001057600080fd5b50600436106100a95760003560e01c8063421e108c11610071578063421e108c1461016857806370a082311461018657806395d89b41146101b6578063a9059cbb146101d4578063c5f956af14610204578063dd62ed3e14610222576100a9565b806306fdde03146100ae578063095ea7b3146100cc57806318160ddd146100fc57806323b872dd1461011a578063313ce5671461014a575b600080fd5b6100b6610252565b6040516100c39190610b47565b60405180910390f35b6100e660048036038101906100e19190610c02565b6102e4565b6040516100f39190610c5d565b60405180910390f35b610104610307565b6040516101119190610c87565b60405180910390f35b610134600480360381019061012f9190610ca2565b610311565b6040516101419190610c5d565b60405180910390f35b610152610340565b60405161015f9190610d11565b60405180910390f35b610170610349565b60405161017d9190610d3b565b60405180910390f35b6101a0600480360381019061019b9190610d56565b61036f565b6040516101ad9190610c87565b60405180910390f35b6101be6103b7565b6040516101cb9190610b47565b60405180910390f35b6101ee60048036038101906101e99190610c02565b610449565b6040516101fb9190610c5d565b60405180910390f35b61020c61046c565b6040516102199190610d3b565b60405180910390f35b61023c60048036038101906102379190610d83565b610492565b6040516102499190610c87565b60405180910390f35b60606003805461026190610df2565b80601f016020809104026020016040519081016040528092919081815260200182805461028d90610df2565b80156102da5780601f106102af576101008083540402835291602001916102da565b820191906000526020600020905b8154815290600101906020018083116102bd57829003601f168201915b5050505050905090565b6000806102ef610519565b90506102fc818585610521565b600191505092915050565b6000600254905090565b60008061031c610519565b9050610329858285610533565b6103348585856105c7565b60019150509392505050565b60006012905090565b600660009054906101000a900473ffffffffffffffffffffffffffffffffffffffff1681565b60008060008373ffffffffffffffffffffffffffffffffffffffff1673ffffffffffffffffffffffffffffffffffffffff168152602001908152602001600020549050919050565b6060600480546103c690610df2565b80601f01602080910402602001604051908101604052809291908181526020018280546103f290610df2565b801561043f5780601f106104145761010080835404028352916020019161043f565b820191906000526020600020905b81548152906001019060200180831161042257829003601f168201915b5050505050905090565b600080610454610519565b90506104618185856105c7565b600191505092915050565b600560009054906101000a900473ffffffffffffffffffffffffffffffffffffffff1681565b6000600160008473ffffffffffffffffffffffffffffffffffffffff1673ffffffffffffffffffffffffffffffffffffffff16815260200190815260200160002060008373ffffffffffffffffffffffffffffffffffffffff1673ffffffffffffffffffffffffffffffffffffffff16815260200190815260200160002054905092915050565b600033905090565b61052e83838360016106bb565b505050565b600061053f8484610492565b90507fffffffffffffffffffffffffffffffffffffffffffffffffffffffffffffffff81146105c157818110156105b1578281836040517ffb8f41b20000000000000000000000000000000000000000000000000000000081526004016105a893929190610e23565b60405180910390fd5b6105c0848484840360006106bb565b5b50505050565b600073ffffffffffffffffffffffffffffffffffffffff168373ffffffffffffffffffffffffffffffffffffffff16036106395760006040517f96c6fd1e0000000000000000000000000000000000000000000000000000000081526004016106309190610d3b565b60405180910390fd5b600073ffffffffffffffffffffffffffffffffffffffff168273ffffffffffffffffffffffffffffffffffffffff16036106ab5760006040517fec442f050000000000000000000000000000000000000000000000000000000081526004016106a29190610d3b565b60405180910390fd5b6106b6838383610892565b505050565b600073ffffffffffffffffffffffffffffffffffffffff168473ffffffffffffffffffffffffffffffffffffffff160361072d5760006040517fe602df050000000000000000000000000000000000000000000000000000000081526004016107249190610d3b565b60405180910390fd5b600073ffffffffffffffffffffffffffffffffffffffff168373ffffffffffffffffffffffffffffffffffffffff160361079f5760006040517f94280d620000000000000000000000000000000000000000000000000000000081526004016107969190610d3b565b60405180910390fd5b81600160008673ffffffffffffffffffffffffffffffffffffffff1673ffffffffffffffffffffffffffffffffffffffff16815260200190815260200160002060008573ffffffffffffffffffffffffffffffffffffffff1673ffffffffffffffffffffffffffffffffffffffff16815260200190815260200160002081905550801561088c578273ffffffffffffffffffffffffffffffffffffffff168473ffffffffffffffffffffffffffffffffffffffff167f8c5be1e5ebec7d5bd14f71427d1e84f3dd0314c0f7b2291e5b200ac8c7c3b925846040516108839190610c87565b60405180910390a35b50505050565b600073ffffffffffffffffffffffffffffffffffffffff168373ffffffffffffffffffffffffffffffffffffffff16036108e45780600260008282546108d89190610e89565b925050819055506109b7565b60008060008573ffffffffffffffffffffffffffffffffffffffff1673ffffffffffffffffffffffffffffffffffffffff16815260200190815260200160002054905081811015610970578381836040517fe450d38c00000000000000000000000000000000000000000000000000000000815260040161096793929190610e23565b60405180910390fd5b8181036000808673ffffffffffffffffffffffffffffffffffffffff1673ffffffffffffffffffffffffffffffffffffffff16815260200190815260200160002081905550505b600073ffffffffffffffffffffffffffffffffffffffff168273ffffffffffffffffffffffffffffffffffffffff1603610a005780600260008282540392505081905550610a4d565b806000808473ffffffffffffffffffffffffffffffffffffffff1673ffffffffffffffffffffffffffffffffffffffff168152602001908152602001600020600082825401925050819055505b8173ffffffffffffffffffffffffffffffffffffffff168373ffffffffffffffffffffffffffffffffffffffff167fddf252ad1be2c89b69c2b068fc378daa952ba7f163c4a11628f55a4df523b3ef83604051610aaa9190610c87565b60405180910390a3505050565b600081519050919050565b600082825260208201905092915050565b60005b83811015610af1578082015181840152602081019050610ad6565b60008484015250505050565b6000601f19601f8301169050919050565b6000610b1982610ab7565b610b238185610ac2565b9350610b33818560208601610ad3565b610b3c81610afd565b840191505092915050565b60006020820190508181036000830152610b618184610b0e565b905092915050565b600080fd5b600073ffffffffffffffffffffffffffffffffffffffff82169050919050565b6000610b9982610b6e565b9050919050565b610ba981610b8e565b8114610bb457600080fd5b50565b600081359050610bc681610ba0565b92915050565b6000819050919050565b610bdf81610bcc565b8114610bea57600080fd5b50565b600081359050610bfc81610bd6565b92915050565b60008060408385031215610c1957610c18610b69565b5b6000610c2785828601610bb7565b9250506020610c3885828601610bed565b9150509250929050565b60008115159050919050565b610c5781610c42565b82525050565b6000602082019050610c726000830184610c4e565b92915050565b610c8181610bcc565b82525050565b6000602082019050610c9c6000830184610c78565b92915050565b600080600060608486031215610cbb57610cba610b69565b5b6000610cc986828701610bb7565b9350506020610cda86828701610bb7565b9250506040610ceb86828701610bed565b9150509250925092565b600060ff82169050919050565b610d0b81610cf5565b82525050565b6000602082019050610d266000830184610d02565b92915050565b610d3581610b8e565b82525050565b6000602082019050610d506000830184610d2c565b92915050565b600060208284031215610d6c57610d6b610b69565b5b6000610d7a84828501610bb7565b91505092915050565b60008060408385031215610d9a57610d99610b69565b5b6000610da885828601610bb7565b9250506020610db985828601610bb7565b9150509250929050565b7f4e487b7100000000000000000000000000000000000000000000000000000000600052602260045260246000fd5b60006002820490506001821680610e0a57607f821691505b602082108103610e1d57610e1c610dc3565b5b50919050565b6000606082019050610e386000830186610d2c565b610e456020830185610c78565b610e526040830184610c78565b949350505050565b7f4e487b7100000000000000000000000000000000000000000000000000000000600052601160045260246000fd5b6000610e9482610bcc565b9150610e9f83610bcc565b9250828201905080821115610eb757610eb6610e5a565b5b9291505056fea2646970667358221220089ab87e460c7289d3e72c8e83cc033286fd270ea1fc068cec5b4c3a8cca1ba964736f6c634300081b0033",
  "linkReferences": {},
  "deployedLinkReferences": {}
}