{
  "_format": "hh-sol-artifact-1",
  "contractName": "Treasury",
  "sourceName": "contracts/Treasury.sol",
  "abi": [
    {
      "inputs": [
        {
          "internalType": "address",
          "name": "_stakingAddress",
          "type": "address"
        },
        {
          "internalType": "address",
          "name": "_adminWallet",
          "type": "address"
        }
      ],
      "stateMutability": "nonpayable",
      "type": "constructor"
    },
    {
      "inputs": [
        {
          "internalType": "address",
          "name": "owner",
          "type": "address"
        }
      ],
      "name": "OwnableInvalidOwner",
      "type": "error"
    },
    {
      "inputs": [
        {
          "internalType": "address",
          "name": "account",
          "type": "address"
        }
      ],
      "name": "OwnableUnauthorizedAccount",
      "type": "error"
    },
    {
      "anonymous": false,
      "inputs": [
        {
          "indexed": true,
          "internalType": "address",
          "name": "initiator",
          "type": "address"
        },
        {
          "indexed": false,
          "internalType": "uint256",
          "name": "amount",
          "type": "uint256"
        }
      ],
      "name": "MFASwapTriggered",
      "type": "event"
    },
    {
      "anonymous": false,
      "inputs": [
        {
          "indexed": true,
          "internalType": "address",
          "name": "previousOwner",
          "type": "address"
        },
        {
          "indexed": true,
          "internalType": "address",
          "name": "newOwner",
          "type": "address"
        }
      ],
      "name": "OwnershipTransferred",
      "type": "event"
    },
    {
      "anonymous": false,
      "inputs": [
        {
          "indexed": true,
          "internalType": "address",
          "name": "to",
          "type": "address"
        },
        {
          "indexed": false,
          "internalType": "uint256",
          "name": "amount",
          "type": "uint256"
        }
      ],
      "name": "TokensTransferred",
      "type": "event"
    },
    {
      "anonymous": false,
      "inputs": [
        {
          "indexed": false,
          "internalType": "uint256",
          "name": "amount",
          "type": "uint256"
        }
      ],
      "name": "TokensTransferredToStaking",
      "type": "event"
    },
    {
      "inputs": [],
      "name": "adminWallet",
      "outputs": [
        {
          "internalType": "address",
          "name": "",
          "type": "address"
        }
      ],
      "stateMutability": "view",
      "type": "function"
    },
    {
      "inputs": [],
      "name": "owner",
      "outputs": [
        {
          "internalType": "address",
          "name": "",
          "type": "address"
        }
      ],
      "stateMutability": "view",
      "type": "function"
    },
    {
      "inputs": [],
      "name": "renounceOwnership",
      "outputs": [],
      "stateMutability": "nonpayable",
      "type": "function"
    },
    {
      "inputs": [],
      "name": "stakingAddress",
      "outputs": [
        {
          "internalType": "address",
          "name": "",
          "type": "address"
        }
      ],
      "stateMutability": "view",
      "type": "function"
    },
    {
      "inputs": [
        {
          "internalType": "address",
          "name": "newOwner",
          "type": "address"
        }
      ],
      "name": "transferOwnership",
      "outputs": [],
      "stateMutability": "nonpayable",
      "type": "function"
    },
    {
      "inputs": [
        {
          "internalType": "address",
          "name": "tokenAddress",
          "type": "address"
        }
      ],
      "name": "transferToStaking",
      "outputs": [],
      "stateMutability": "nonpayable",
      "type": "function"
    },
    {
      "inputs": [
        {
          "internalType": "address",
          "name": "to",
          "type": "address"
        },
        {
          "internalType": "uint256",
          "name": "amount",
          "type": "uint256"
        },
        {
          "internalType": "address",
          "name": "tokenAddress",
          "type": "address"
        }
      ],
      "name": "transferTokens",
      "outputs": [],
      "stateMutability": "nonpayable",
      "type": "function"
    },
    {
      "inputs": [
        {
          "internalType": "uint256",
          "name": "amount",
          "type": "uint256"
        },
        {
          "internalType": "address",
          "name": "tokenAddress",
          "type": "address"
        }
      ],
      "name": "triggerMFASwap",
      "outputs": [],
      "stateMutability": "nonpayable",
      "type": "function"
    }
  ],
  "bytecode": "0x608060405234801561001057600080fd5b50604051611382380380611382833981810160405281019061003291906102d4565b80600073ffffffffffffffffffffffffffffffffffffffff168173ffffffffffffffffffffffffffffffffffffffff16036100a55760006040517f1e4fbdf700000000000000000000000000000000000000000000000000000000815260040161009c9190610323565b60405180910390fd5b6100b4816101ad60201b60201c565b50600073ffffffffffffffffffffffffffffffffffffffff168173ffffffffffffffffffffffffffffffffffffffff1603610124576040517f08c379a000000000000000000000000000000000000000000000000000000000815260040161011b906103c1565b60405180910390fd5b81600160006101000a81548173ffffffffffffffffffffffffffffffffffffffff021916908373ffffffffffffffffffffffffffffffffffffffff16021790555080600260006101000a81548173ffffffffffffffffffffffffffffffffffffffff021916908373ffffffffffffffffffffffffffffffffffffffff16021790555050506103e1565b60008060009054906101000a900473ffffffffffffffffffffffffffffffffffffffff169050816000806101000a81548173ffffffffffffffffffffffffffffffffffffffff021916908373ffffffffffffffffffffffffffffffffffffffff1602179055508173ffffffffffffffffffffffffffffffffffffffff168173ffffffffffffffffffffffffffffffffffffffff167f8be0079c531659141344cd1fd0a4f28419497f9722a3daafe3b4186f6b6457e060405160405180910390a35050565b600080fd5b600073ffffffffffffffffffffffffffffffffffffffff82169050919050565b60006102a182610276565b9050919050565b6102b181610296565b81146102bc57600080fd5b50565b6000815190506102ce816102a8565b92915050565b600080604083850312156102eb576102ea610271565b5b60006102f9858286016102bf565b925050602061030a858286016102bf565b9150509250929050565b61031d81610296565b82525050565b60006020820190506103386000830184610314565b92915050565b600082825260208201905092915050565b7f41646d696e2077616c6c65742063616e6e6f7420626520746865207a65726f2060008201527f6164647265737300000000000000000000000000000000000000000000000000602082015250565b60006103ab60278361033e565b91506103b68261034f565b604082019050919050565b600060208201905081810360008301526103da8161039e565b9050919050565b610f92806103f06000396000f3fe608060405234801561001057600080fd5b50600436106100885760003560e01c80638da5cb5b1161005b5780638da5cb5b146100ed578063a65545751461010b578063d7b4be2414610127578063f2fde38b1461014557610088565b806336b19cd71461008d5780634af350eb146100ab57806366ac98f9146100c7578063715018a6146100e3575b600080fd5b610095610161565b6040516100a29190610a21565b60405180910390f35b6100c560048036038101906100c09190610aa3565b610187565b005b6100e160048036038101906100dc9190610af6565b610392565b005b6100eb610600565b005b6100f5610614565b6040516101029190610a21565b60405180910390f35b61012560048036038101906101209190610b23565b61063d565b005b61012f6107e1565b60405161013c9190610a21565b60405180910390f35b61015f600480360381019061015a9190610af6565b610807565b005b600260009054906101000a900473ffffffffffffffffffffffffffffffffffffffff1681565b61018f61088d565b600073ffffffffffffffffffffffffffffffffffffffff168373ffffffffffffffffffffffffffffffffffffffff16036101fe576040517f08c379a00000000000000000000000000000000000000000000000000000000081526004016101f590610be6565b60405180910390fd5b6000819050828173ffffffffffffffffffffffffffffffffffffffff166370a08231306040518263ffffffff1660e01b815260040161023d9190610a21565b602060405180830381865afa15801561025a573d6000803e3d6000fd5b505050506040513d601f19601f8201168201806040525081019061027e9190610c1b565b10156102bf576040517f08c379a00000000000000000000000000000000000000000000000000000000081526004016102b690610c94565b60405180910390fd5b8073ffffffffffffffffffffffffffffffffffffffff1663a9059cbb85856040518363ffffffff1660e01b81526004016102fa929190610cc3565b6020604051808303816000875af1158015610319573d6000803e3d6000fd5b505050506040513d601f19601f8201168201806040525081019061033d9190610d24565b508373ffffffffffffffffffffffffffffffffffffffff167f12f4533b5cbd2c9f8a0752a2d0b16379af992dbb2a0844a5007a19d983b3a934846040516103849190610d51565b60405180910390a250505050565b61039a61088d565b600081905060008173ffffffffffffffffffffffffffffffffffffffff166318160ddd6040518163ffffffff1660e01b8152600401602060405180830381865afa1580156103ec573d6000803e3d6000fd5b505050506040513d601f19601f820116820180604052508101906104109190610c1b565b905060006064826104219190610d9b565b905060008111610466576040517f08c379a000000000000000000000000000000000000000000000000000000000815260040161045d90610e18565b60405180910390fd5b808373ffffffffffffffffffffffffffffffffffffffff166370a08231306040518263ffffffff1660e01b81526004016104a09190610a21565b602060405180830381865afa1580156104bd573d6000803e3d6000fd5b505050506040513d601f19601f820116820180604052508101906104e19190610c1b565b1015610522576040517f08c379a000000000000000000000000000000000000000000000000000000000815260040161051990610c94565b60405180910390fd5b8273ffffffffffffffffffffffffffffffffffffffff1663a9059cbb600160009054906101000a900473ffffffffffffffffffffffffffffffffffffffff16836040518363ffffffff1660e01b815260040161057f929190610cc3565b6020604051808303816000875af115801561059e573d6000803e3d6000fd5b505050506040513d601f19601f820116820180604052508101906105c29190610d24565b507ffdda8bb02999f99f5fdee7ed153ceef6f78d9cd85fe5f9eb312fe802cd773404816040516105f29190610d51565b60405180910390a150505050565b61060861088d565b6106126000610914565b565b60008060009054906101000a900473ffffffffffffffffffffffffffffffffffffffff16905090565b600260009054906101000a900473ffffffffffffffffffffffffffffffffffffffff1673ffffffffffffffffffffffffffffffffffffffff163373ffffffffffffffffffffffffffffffffffffffff16146106cd576040517f08c379a00000000000000000000000000000000000000000000000000000000081526004016106c490610eaa565b60405180910390fd5b6000819050828173ffffffffffffffffffffffffffffffffffffffff166370a08231306040518263ffffffff1660e01b815260040161070c9190610a21565b602060405180830381865afa158015610729573d6000803e3d6000fd5b505050506040513d601f19601f8201168201806040525081019061074d9190610c1b565b101561078e576040517f08c379a000000000000000000000000000000000000000000000000000000000815260040161078590610f3c565b60405180910390fd5b3373ffffffffffffffffffffffffffffffffffffffff167f8173b3a25580bb36b85a371c5a39e0f99a4f7206123de3f62f0f61e0c18ca977846040516107d49190610d51565b60405180910390a2505050565b600160009054906101000a900473ffffffffffffffffffffffffffffffffffffffff1681565b61080f61088d565b600073ffffffffffffffffffffffffffffffffffffffff168173ffffffffffffffffffffffffffffffffffffffff16036108815760006040517f1e4fbdf70000000000000000000000000000000000000000000000000000000081526004016108789190610a21565b60405180910390fd5b61088a81610914565b50565b6108956109d8565b73ffffffffffffffffffffffffffffffffffffffff166108b3610614565b73ffffffffffffffffffffffffffffffffffffffff1614610912576108d66109d8565b6040517f118cdaa70000000000000000000000000000000000000000000000000000000081526004016109099190610a21565b60405180910390fd5b565b60008060009054906101000a900473ffffffffffffffffffffffffffffffffffffffff169050816000806101000a81548173ffffffffffffffffffffffffffffffffffffffff021916908373ffffffffffffffffffffffffffffffffffffffff1602179055508173ffffffffffffffffffffffffffffffffffffffff168173ffffffffffffffffffffffffffffffffffffffff167f8be0079c531659141344cd1fd0a4f28419497f9722a3daafe3b4186f6b6457e060405160405180910390a35050565b600033905090565b600073ffffffffffffffffffffffffffffffffffffffff82169050919050565b6000610a0b826109e0565b9050919050565b610a1b81610a00565b82525050565b6000602082019050610a366000830184610a12565b92915050565b600080fd5b610a4a81610a00565b8114610a5557600080fd5b50565b600081359050610a6781610a41565b92915050565b6000819050919050565b610a8081610a6d565b8114610a8b57600080fd5b50565b600081359050610a9d81610a77565b92915050565b600080600060608486031215610abc57610abb610a3c565b5b6000610aca86828701610a58565b9350506020610adb86828701610a8e565b9250506040610aec86828701610a58565b9150509250925092565b600060208284031215610b0c57610b0b610a3c565b5b6000610b1a84828501610a58565b91505092915050565b60008060408385031215610b3a57610b39610a3c565b5b6000610b4885828601610a8e565b9250506020610b5985828601610a58565b9150509250929050565b600082825260208201905092915050565b7f43616e6e6f74207472616e7366657220746f20746865207a65726f206164647260008201527f6573730000000000000000000000000000000000000000000000000000000000602082015250565b6000610bd0602383610b63565b9150610bdb82610b74565b604082019050919050565b60006020820190508181036000830152610bff81610bc3565b9050919050565b600081519050610c1581610a77565b92915050565b600060208284031215610c3157610c30610a3c565b5b6000610c3f84828501610c06565b91505092915050565b7f496e73756666696369656e742062616c616e636520696e207472656173757279600082015250565b6000610c7e602083610b63565b9150610c8982610c48565b602082019050919050565b60006020820190508181036000830152610cad81610c71565b9050919050565b610cbd81610a6d565b82525050565b6000604082019050610cd86000830185610a12565b610ce56020830184610cb4565b9392505050565b60008115159050919050565b610d0181610cec565b8114610d0c57600080fd5b50565b600081519050610d1e81610cf8565b92915050565b600060208284031215610d3a57610d39610a3c565b5b6000610d4884828501610d0f565b91505092915050565b6000602082019050610d666000830184610cb4565b92915050565b7f4e487b7100000000000000000000000000000000000000000000000000000000600052601260045260246000fd5b6000610da682610a6d565b9150610db183610a6d565b925082610dc157610dc0610d6c565b5b828204905092915050565b7f4e6f20746f6b656e7320746f207472616e736665720000000000000000000000600082015250565b6000610e02601583610b63565b9150610e0d82610dcc565b602082019050919050565b60006020820190508181036000830152610e3181610df5565b9050919050565b7f4f6e6c79207468652061646d696e2077616c6c65742063616e2074726967676560008201527f7220746865204d46412073776170000000000000000000000000000000000000602082015250565b6000610e94602e83610b63565b9150610e9f82610e38565b604082019050919050565b60006020820190508181036000830152610ec381610e87565b9050919050565b7f496e73756666696369656e742062616c616e636520696e20747265617375727960008201527f20666f7220737761700000000000000000000000000000000000000000000000602082015250565b6000610f26602983610b63565b9150610f3182610eca565b604082019050919050565b60006020820190508181036000830152610f5581610f19565b905091905056fea26469706673582212201f83539fb089a0d70b1e1cf4a751c9e022edc912359a4f31506356c20148d9af64736f6c634300081b0033",
  "linkReferences": {},
  "deployedLinkReferences": {}
}